S00B00006173702E73726563D5
S3150800800020BB0020D981000831820008318200088F
S315080080103182000831820008318200083182000866
S315080080200000000000000000000000003383000884
S3150800803031820008000000006F8200084DAC00087D
S315080080404DAC00084DAC00084DAC00084DAC00081E
S315080080504DAC00084DAC00084DAC00084DAC00080E
S315080080604DAC00084DAC00084DAC00084DAC0008FE
S315080080704DAC00084DAC00084DAC00084DAC0008EE
S315080080804DAC00084DAC00084DAC00084DAC0008DE
S315080080904DAC00084DAC00084DAC00084DAC0008CE
S315080080A04DAC00084DAC00084DAC00084DAC0008BE
S315080080B04DAC00084DAC00084DAC00084DAC0008AE
S315080080C04DAC00084DAC00084DAC00084DAC00089E
S315080080D04DAC00084DAC00084DAC00084DAC00088E
S315080080E04DAC00084DAC00084DAC00084DAC00087E
S315080080F04DAC00084DAC00084DAC00084DAC00086E
S315080081004DAC00084DAC00084DAC00084DAC00085D
S315080081104DAC00084DAC00084DAC00084DAC00084D
S315080081204DAC00084DAC00084DAC00084DAC00083D
S315080081304DAC00084DAC00084DAC00084DAC00082D
S315080081404DAC00084DAC00084DAC00084DAC00081D
S315080081504DAC00084DAC00084DAC00084DAC00080D
S315080081604DAC00084DAC00084DAC00084DAC0008FD
S315080081704DAC00084DAC00084DAC00084DAC0008ED
S315080081804DAC00084DAC00084DAC00084DAC0008DD
S315080081904DAC00084DAC00084DAC00084DAC0008CD
S315080081A04DAC00084DAC00084DAC00084DAC0008BD
S315080081B04DAC00084DAC00084DAC00084DAC0008AD
S315080081C04DAC00084DAC00084DAC00084DAC00089D
S315080081D04DAC00084DAC000871B60E4800B180479A
S315080081E000200D490D4A914203D20860043191429C
S315080081F0FBD30B490B4A914206D20B4B0868186011
S31508008200043104339142F9D3084800B1804702F09B
S31508008210C1FDFEE7199D0008001000207C6F0120B3
S31508008220B4580208BC5C02080000002000000000E8
S31508008230EFF31181EFF3108241EA02211EF0040FD9
S3150800824005D0EFF3098020E9024002B501E002B546
S3150800825068467A4A13680CB4EFF30583784951F8EF
S31508008260232090470FBC016082F3118818474FF00E
S31508008270100080F311887349086858B1EFF3098232
S315080082801EF0100F01D122ED108A22E9F00F82614B
S31508008290C0F81CE06C4800680860A8B1C16901F024
S315080082A07F42B2F17F4F1FD18269B2E8F00F11F019
S315080082B0100F01D1B2EC108A82F309884FF0000042
S315080082C071B680F311880847EFF309805F494FF0CC
S315080082D0807220E90600A0F1180080F3098800BF23
S315080082E0DFF800F0FDFFFFFF426A52B1584A4FF02F
S315080082F080738069B0E8F00F20E90E00A0F1140041
S3150800830008E08069B0E8F00F4FF0807220E90600B7
S31508008310A0F1180080F3098848484FF00101016070
S31508008320BFF34F8FDFF800F0FDFFFFFFBDEC108AAB
S31508008330704742484FF0000101604FF0000080F39B
S315080083401188A0692946B0E8F00F11F0100F01D185
S31508008350B0EC108A80F3098808473E48016881F323
S3150800836008884FF0020080F31488BFF36F8F3A49EC
S31508008370D1F814D034490968324A61B617E032494F
S315080083800968304A13E0EFF3148303F004033BB1A2
S315080083902DED108A4FF0020383F31488BFF36F8F15
S315080083A043622DE9F00FC0F81CE0C0F818D0116040
S315080083B089B1CA6902F07F40B0F17F4F02D10C46FD
S315080083C0154600DFD1F818D0BDE8F00F4B6A0BB19F
S315080083D0BDEC108A104719484FF000010160BFF341
S315080083E04F8F4FF0000080F31188BFF34F8F30BFD7
S315080083F0FBE700BF11484FF000010160BFF34F8F44
S315080084004FF0000080F311880E4801688A685068AA
S31508008410DFF848E0D2F808F04FF0000181F314883D
S31508008420BFF36F8F02F0E2BCA0F1A200002800DCC7
S315080084307047A0F164000028FBDC7047480D012056
S31508008440B81A02085C0D0120600D0120D6830008C9
S315080084502C830008C01D0208401E02089DB30008B0
S315080084604FF0FF3C06E000BF4FF0010C02E000BFF2
S315080084704FF0010C4DF804CD4FEA410C7FEA6C5CD5
S315080084804FEA430C18BF7FEA6C5C1BD001B050EA78
S31508008490410C0CBF52EA430C91EA030F02BF90EA63
S315080084A0020F0020704710F1000F91EA030F58BF22
S315080084B0994208BF90422CBFD8176FEAE37040F084
S315080084C0010070474FEA410C7FEA6C5C02D150EA22
S315080084D0013C07D14FEA430C7FEA6C5CD6D152EADD
S315080084E0033CD3D05DF8040B704700BF84461046A2
S315080084F062468C461946634600E000BF01B5FFF7A1
S31508008500B7FF002848BF10F1000F01BD4DF808ED70
S31508008510FFF7F4FF0CBF012000205DF808FB00BF41
S315080085204DF808EDFFF7EAFF34BF012000205DF89B
S3150800853008FB00BF4DF808EDFFF7E0FF94BF0120E8
S3150800854000205DF808FB00BF4DF808EDFFF7CEFFE9
S3150800855094BF012000205DF808FB00BF4DF808ED28
S31508008560FFF7C4FF34BF012000205DF808FB00BFF9
S315080085707BB972B90029BEBF00204FF0004106E062
S3150800858008BF00281CBF6FF000414FF0FF3000F015
S31508008590A7B9ADF1080C6DE904CE002909DB002B5B
S315080085A01ADB00F035F8DDF804E0DDE9022304B053
S315080085B07047404261EB4101002B1BDB00F028F8B5
S315080085C0DDF804E0DDE9022304B0404261EB410135
S315080085D0524263EB43037047524263EB430300F096
S315080085E017F8DDF804E0DDE9022304B0404261EB48
S315080085F041017047524263EB430300F009F8DDF886
S3150800860004E0DDE9022304B0524263EB43037047FA
S315080086102DE9F047089D04468E46002B4DD18A4227
S31508008620944669D9B2FA82F252B101FA02F3C2F15A
S31508008630200120FA01F10CFA02FC41EA030E9440EB
S315080086404FEA1C48210CBEFBF8F61FFA8CF708FB0C
S3150800865016E341EA034306FB07F199420AD91CEBE4
S31508008660030306F1FF3080F01F81994240F21C8116
S31508008670023E63445B1AA4B2B3FBF8F008FB10335E
S3150800868044EA034400FB07F7A7420AD91CEB040493
S3150800869000F1FF3380F00A81A74240F20781644463
S315080086A0023840EA0640E41B00261DB1D4400023E8
S315080086B0C5E900433146BDE8F0878B4209D9002D4C
S315080086C000F0EF800026C5E9000130463146BDE8D6
S315080086D0F087B3FA83F6002E4AD18B4202D3824240
S315080086E000F2F980841A61EB030301209E46002DEF
S315080086F0E0D0C5E9004EDDE702B9FFDEB2FA82F244
S31508008700002A40F09280A1EB0C014FEA1C471FFAA1
S315080087108CFE0126200CB1FBF7F307FB131140EA88
S3150800872001410EFB03F0884208D91CEB010103F155
S31508008730FF3802D2884200F2CB804346091AA4B217
S31508008740B1FBF7F007FB101144EA01440EFB00FEEB
S31508008750A64508D91CEB040400F1FF3102D2A64550
S3150800876000F2BB800846A4EB0E0440EA03409CE7EF
S31508008770C6F12007B34022FA07FC4CEA030C20FA9C
S3150800878007F401FA06F31C43F9404FEA1C4900FABC
S3150800879006F3B1FBF9F8200C1FFA8CFE09FB181139
S315080087A040EA014108FB0EF0884202FA06F20BD9AC
S315080087B01CEB010108F1FF3A80F08880884240F2FC
S315080087C08580A8F102086144091AA4B2B1FBF9F040
S315080087D009FB101144EA014100FB0EFE8E4508D93B
S315080087E01CEB010100F1FF346CD28E456AD90238C0
S315080087F0614440EA0840A0FB0294A1EB0E01A142A5
S31508008800C846A64656D353D05DB1B3EB080261EB12
S315080088100E0101FA07F722FA06F3F1401F43C5E9EC
S31508008820007100263146BDE8F087C2F12003D84022
S315080088300CFA02FC21FA03F3914001434FEA1C4764
S315080088401FFA8CFEB3FBF7F007FB10360B0C43EA56
S31508008850064300FB0EF69E4204FA02F408D91CEB06
S31508008860030300F1FF382FD29E422DD90238634404
S315080088709B1B89B2B3FBF7F607FB163341EA0341A4
S3150800888006FB0EF38B4208D91CEB010106F1FF38F3
S3150800889016D28B4214D9023E6144C91A46EA0046EA
S315080088A038E72E46284605E70646E3E61846F8E67C
S315080088B04B45A9D2B9EB020864EB0C0E0138A3E7C5
S315080088C04646EAE7204694E74046D1E7D0467BE7A6
S315080088D0023B614432E7304609E76444023842E71E
S315080088E0704700BF844641EA000313F003036DD1C5
S315080088F0403A41D351F8043B40F8043B51F8043B55
S3150800890040F8043B51F8043B40F8043B51F8043B5B
S3150800891040F8043B51F8043B40F8043B51F8043B4B
S3150800892040F8043B51F8043B40F8043B51F8043B3B
S3150800893040F8043B51F8043B40F8043B51F8043B2B
S3150800894040F8043B51F8043B40F8043B51F8043B1B
S3150800895040F8043B51F8043B40F8043B51F8043B0B
S3150800896040F8043B51F8043B40F8043B51F8043BFB
S3150800897040F8043B403ABDD2303211D351F8043B9B
S3150800898040F8043B51F8043B40F8043B51F8043BDB
S3150800899040F8043B51F8043B40F8043B103AEDD24A
S315080089A00C3205D351F8043B40F8043B043AF9D29B
S315080089B0043208D0D2071CBF11F8013B00F8013B6E
S315080089C001D30B8803806046704700BF082A13D37B
S315080089D08B078DD010F003038AD0C3F10403D21A93
S315080089E0DB071CBF11F8013B00F8013B80D331F8C7
S315080089F0023B20F8023B7BE7043AD9D3013A11F847
S31508008A00013B00F8013BF9D20B7803704B784370B1
S31508008A108B788370604670470000000000000000F5
S31508008A200000000000000000000000000000000038
S31508008A300000000000000000000000000000000028
S31508008A4090F800F06DE9024520F007016FF0000C80
S31508008A5010F0070491F820F040F049804FF0000428
S31508008A606FF00700D1E9002391F840F000F1080003
S31508008A7082FA4CF2A4FA8CF283FA4CF3A2FA8CF33B
S31508008A804BBBD1E9022382FA4CF200F10800A4FAA2
S31508008A908CF283FA4CF3A2FA8CF3E3B9D1E90423F6
S31508008AA082FA4CF200F10800A4FA8CF283FA4CF32D
S31508008AB0A2FA8CF37BB9D1E9062301F1200182FAE7
S31508008AC04CF200F10800A4FA8CF283FA4CF3A2FAED
S31508008AD08CF3002BC6D0002A04BF04301A4612BAFB
S31508008AE0B2FA82F2FDE8024500EBD2007047D1E9FE
S31508008AF0002304F00305C4F100004FEAC50514F08D
S31508008B00040F91F840F00CFA05F562EA05021CBF5D
S31508008B1063EA050362464FF00004A9E730B5204B27
S31508008B20204D83B0012403201C7001F071FA01F076
S31508008B3069FA422001F038FD22460021286001F03A
S31508008B4063FD2868184D01F07FFD432001F02CFDD8
S31508008B5021462246286001F057FD286801F074FD79
S31508008B6001F014FB412001F085FC104B024644201D
S31508008B701A6001F049FB0E4A6423009319461060F7
S31508008B801A4601F059FB452001F010FC094A6423F6
S31508008B90106019461A4603B0BDE8304001F048BCDB
S31508008BA028100020101000201410002004100020A7
S31508008BB00810002000100020F0B583B04FF0000C1C
S31508008BC007460DF106000E4615461C46ADF806C0CA
S31508008BD001F09AFA9FED187BBDF806C0BCF1400F6C
S31508008BE087ED007B86ED007B85ED007B84ED007BC1
S31508008BF015D00BD8BCF1100F17D0BCF1200F03D13C
S31508008C000F4B0022C6E9002303B0F0BDBCF5007F78
S31508008C10FAD10B4B0022C4E9002303B0F0BD084B80
S31508008C200022C5E9002303B0F0BD054B0022C7E9C1
S31508008C30002303B0F0BD00BF0000000000000000E4
S31508008C400000F03F2DE9F0413A4E8EB0D6E900011A
S31508008C5000220023FFF75AFC00285FD0D6E902015C
S31508008C6000220023FFF752FCB0FA80F77F09B846C6
S31508008C70314D324C012001F0D5F900214FF4C8439B
S31508008C800BA8ADF82C10ADF82E3001F0B3F9002181
S31508008C90286801F04FFD2068002101F04BFD002FE8
S31508008CA040D1274F87F8008001F044FA01F058FABE
S31508008CB004AA02A906AB6846FFF77EFF214F08A85B
S31508008CC001F06AFA0BA801F06FFA386801F0FEFBAA
S31508008CD0386801F029FC286801F0D6FC286801F0FC
S31508008CE0F3FC286801F010FD206801F0CDFC20682F
S31508008CF001F0EAFC206801F007FD134B186801F043
S31508008D0087FA124B186801F06DFB00220023C6E9AA
S31508008D100023C6E902230EB0BDE8F0814FF0010832
S31508008D204746A5E7064F3B78012BBBD001F044FA2E
S31508008D30B8E700BF181000201010002014100020FB
S31508008D402810002004100020081000200010002021
S31508008D5008B5044802F0CAFAFFF7E0FE024B012202
S31508008D601A60FEE720A107000C100020034B1B68C1
S31508008D70012B00D07047FFF765BF00BF0C1000201D
S31508008D802DE9F04FB0FBF1FC1D4601FB1C0385B035
S31508008D90D35CDDF838808DF8043001AFDDE90F9635
S31508008DA0BE46012400E09C46814260460AD8BCFBC8
S31508008DB0F1F301FB13CC013412F80CC00EF801CF05
S31508008DC00B2CF0D1B8F1000F2AD005B1013DB9F14D
S31508008DD0000F01D02D20B047AC421BD2B9F1000FCD
S31508008DE014BF4FF0300B4FF0200BA24658460AF13D
S31508008DF0010AB047AA45F9D3B8F1000F0AD1013CD8
S31508008E003C442078B047BC4204F1FF34F9D105B0A0
S31508008E10BDE8F08FB9F1000FF1D12D20B047EEE78C
S31508008E20AC42DBD3EBE700BF2DE9F047824681462B
S31508008E301AF8010B84B000285BD0DFF86881574F19
S31508008E40574E0D46144607E0A047D1460AF1010AD7
S31508008E5099F8000000284CD02528F5D199F801206A
S31508008E60302A55D009F102004FF0000CA2F1300368
S31508008E70092B4FF000030BD803EB830302EB4303E4
S31508008E8010F8012BA2F130010929A3F13003F3D917
S31508008E906C2A814639D002F0DF01542935D0782A68
S31508008EA021D8572A28D9583A202A1CD8DFE802F0B0
S31508008EB0541B1B1B1B1B1B1B1B1B1B4D441B1B1B60
S31508008EC01B1B1B1B1B1B1B1B371B1B611B111B1B8C
S31508008ED0370055F8040BCDE901C4002200920A2197
S31508008EE03246FFF74DFF09F1010A99F800000028FC
S31508008EF0B2D104B0BDE8F087002A4AD0252AF2D1BB
S31508008F001046A04709F1010AEFE719F8012BC6E751
S31508008F1099F8022009F103004FF0010CA6E7002298
S31508008F2055F8040B0092CDE901C43A461021FFF723
S31508008F3027FF09F1010A8BE755F8040B0028CDE94C
S31508008F4001C4CADA40420122C8E755F8040BC0B288
S31508008F5009F1010AA0477BE7002255F8040B0092A5
S31508008F60CDE901C442461021FFF70AFF09F1010ABB
S31508008F706EE755F804AB1AF8010B0028B3D0A047E2
S31508008F809AF800000AF1010A0028F8D109F1010A45
S31508008F90ABE7CA4609F1FF395AE700BF08170208C6
S31508008FA0FC160208E81602080268012A10B50346EC
S31508008FB00C4602D0022A0BD010BD80680A4603F17F
S31508008FC00C01FFF731FF23460A20BDE81040184779
S31508008FD00A46024803F10801F3E700BFB016020883
S31508008FE010B582B003460A460C460448019301A907
S31508008FF0FFF71AFF0A20A04702B010BDD0160208D4
S3150800900030B50123036081600C789E4644B1BEF1F9
S31508009010050F05D8252C04D011F8014F002CF6D1E0
S3150800902030BD4B7801F1020CA3F13001092905D8AE
S315080090301CF8013BA3F130010929F9D96C2B5BD047
S3150800904003F0DF0154291DD0002B00F0B480583BF3
S31508009050D9B2202900F2B580202B00F2B280DFE8D1
S3150800906003F040B0B0B0B0B0B0B0B0B0B04040B0AF
S31508009070B0B0B0B0B0B0B0B0B0B030B0B030B04052
S31508009080B0B04000614611F8014B002C00F0978003
S31508009090583CE5B2202D7FD8202C7DD8DFE804F097
S315080090A01C7C7C7C7C7C7C7C7C7C7C227F7C7C7CA9
S315080090B07C7C7C7C7C7C7C7C127C7C127C1C7C7C16
S315080090C01C0061460EF1020352F8044B40F8234097
S315080090D00EF1010E0C7899E7742B03D0542B64D04B
S315080090E08C46614652F8044B0EF102030EF1010E4E
S315080090F040F823400C7889E7614611F8014B002CAB
S315080091005DD0583CE3B2202B46D8202C44D801A386
S3150800911053F824F0E5900008999100089991000801
S315080091209991000899910008999100089991000869
S315080091309991000899910008999100089991000859
S31508009140E5900008E59000089991000899910008B3
S315080091509991000899910008999100089991000839
S315080091609991000899910008999100089991000829
S3150800917099910008C59000089991000899910008EE
S31508009180C590000899910008E59000089991000893
S3150800919099910008E59000089CF8014036E76C2B89
S315080091A0A0D0742B9ED0542B9CD1073222F00702F4
S315080091B052F8084B98E71CF8014C0CF1FF3C614645
S315080091C024E79CF80040614620E700BF10B50C482C
S315080091D088B04FF4004101F0B7FB0A4A106008B1A5
S315080091E008B010BD0849094B0291BF2202246946FE
S315080091F0CDE90323009400F027FB00F0B3FDFEE75A
S315080092000020002000A000201C17020840170208B2
S315080092100EB410B58BB00DAA044652F8041B019281
S3150800922002A8FFF7EDFE02A9204600F00DFB0BB0E1
S31508009230BDE8104003B0704708B505490620FFF79A
S31508009240E7FF05F047FE03F01CF8002008BD00BF45
S315080092505417020801F098BF012001F0DFBF00BFD4
S3150800926010B582B00C461A460449009403460020FD
S31508009270FFF7CEFF00F076FDFEE700BF7017020885
S31508009280704700BF704700BF704700BF704700BFF8
S31508009290704700BF704700BF024B03490022C3E96D
S315080092A00012704704A00020C4170208704700BFC8
S315080092B010B4074B074C00223F201F21C3E9004288
S315080092C0C3E90222C3E904205DF8044B996170479B
S315080092D038A20020D4170208704700BF704700BFA5
S315080092E0704700BF704700BF704700BF704700BF98
S315080092F00849094B10B4002201F11C0401F1380099
S31508009300C3E90A42C3E90012C3E914025DF8044B33
S31508009310704700BF3018020854A6002000F038BC79
S3150800932000F038BC00F038BC084600F037BC00BF77
S31508009330084600F035BC00BF704700BF00F044BCCB
S3150800934000F054BC00F054BC084600F053BC00BF03
S31508009350084600F05FBC00BF704700BF00F07EBC47
S3150800936000F07EBC00F07EBC084600F07DBC00BF65
S31508009370084600F07BBC00BF704700BF00F078BA13
S31508009380014800F08BBB00BF2818020800F0D6BAC7
S3150800939000F09CBA0A2970B50E46044602D1C36885
S315080093A0DB062ED402F082F9002841DBE36AD3B14A
S315080093B02268A36AD268D6542268A36AE06A556806
S315080093C001330130AB42A5EB0005A362B5FA85F57A
S315080093D004BF0023A362E0626D0902F07BF900284E
S315080093E026DB284670BD256B002DE1D11348314692
S315080093F000F01EFB0028F0D11048012100F02AFBDE
S31508009400D6E70D21FFF7C6FF051EEADBCAD00C4BCF
S31508009410586802F093F8051EC4DA05F13503DBB285
S31508009420042B05D8012202FA03F313F0150FD8D13D
S315080094300123A3606FF00405D3E700BF28180208CC
S315080094409C17020870B5044602F0CEF9B0BB02F0CC
S3150800945053F9002835DB65683DB16FF0280502F041
S3150800946077F900282DDB284670BD40F21153C4E970
S315080094700335C4E90555C4E90855C4E90A552577ED
S31508009480256302F013F9002815DB104800F086FA68
S315080094900F4B186802F032FA01260C48022100F038
S315080094A0D9FAC4E9016502F015F90028D7DAA660E9
S315080094B06FF00405D3E76FF00405D0E76FF01805E1
S315080094C0D1E70123A3606FF00405CCE7281802084A
S315080094D0BC1702082DE9F04106460D46174602F06C
S315080094E083F900283CD17368002B3FD0B068002868
S315080094F039D1B7B1DFF87C800446012028B1D8F805
S31508009500040002F01BF800280DDB15F8011B304695
S31508009510FFF740FF002815DB0134A742EED1A8B1BA
S315080095202046BDE8F08100F13503DBB2042B05D8EF
S31508009530012202FA03F313F0150F03D10123B360D6
S315080095406FF00400002CEBD1BDE8F081094B586898
S3150800955001F080FF0028E3DA0123B3602046E0E744
S315080095606FF01800DDE76FF00400DAE76FF0280007
S31508009570D7E700BF9C17020838B5017F044649B9EA
S31508009580056B0DB9C36A5BB9BDE8384014480121BB
S3150800959000F072BA124800F04BFA0023237738BD60
S315080095A00268436AD2680E48D15C00F041FA236823
S315080095B0626A5968E36A01328A4218BF15469942B7
S315080095C0656202D0013BE36238BD064B586801F07C
S315080095D041FF0028B7BF0122E36AE36AA260F1E708
S315080095E0281802089C170208F8B50446414800F0F6
S315080095F027FAE368DD05C0B228D513285DD0226BAB
S315080096003ABB112821D02368A1691A6891421CD057
S315080096109A686369D0542268636912680133934271
S31508009620636104BF00236361A369002B48D0E26825
S3150800963001335205A36108D5226A32B92268126835
S3150800964002EB4202B3EB920F45D2F8BD226B002A19
S31508009650D9D0112801D09905D5D5E36A0025256307
S31508009660002BF2D0234E244F0FE02368626A596814
S31508009670E36A01328A4214BF10462846994260625C
S3150800968012D0013BE362002BDFD02268636AD268FE
S315080096903046D15C00F0CCF90028E6D1BDE8F840A8
S315080096A01448012100F0D6B9786801F0D3FE0028E5
S315080096B0BCBF0123A360E36AE3E701232363F8BD84
S315080096C00D4B186801F0C6FE0028B7BF0122A36932
S315080096D0A369A260ABE70748132100F0A9F928B9E6
S315080096E00448012100F0B6F91323237701232362E6
S315080096F0F8BD00BF281802089C17020843680BB17A
S31508009700C36A0BB9184670470268436AD268D35CC5
S315080097100B700268436A526801339342C26A436215
S3150800972004BF00234362013A0123C2621846704708
S3150800973000F01EB92DE9F8430E46EFF3108772B60E
S315080097401E4B1F4C1B684B600125636985401D42F3
S315080097501DD01C4AE168D368D2F80080B64601F1EC
S31508009760010903EB411CBEE80F00ACE80F009EE8B8
S315080097700F00C1458CE80F0028BF0023C4F80C90E1
S3150800978028BFE360636898450AD901336360A36913
S315080097901D420DD1012F00D062B60020BDE8F88326
S315080097A0E368A360236901332361A3691D42F1D0ED
S315080097B005493046FFF7F8FBECE700BF440D0120EA
S315080097C038A20020D417020831970008F0B583B0F4
S315080097D0EFF3108272B6012A29D0194C6568002663
S315080097E005B3184AA168D36803EB411E13680193B1
S315080097F04F1C8446BEE80F00ACE80F009EE80F0039
S315080098008CE80F00019B20699F4228BF002305F1C1
S31508009810FF35C4E9015728BFA360002323611EB1A1
S3150800982003B0F0BD6FF0280062B603B0F0BD044C7B
S3150800983065681646002DD4D16FF02800F0E700BF02
S3150800984038A20020D4170208FFF774BF00B583B00A
S31508009850034601220DF1070103488DF80730FFF78B
S3150800986039FE03B05DF804FB04A0002000F080B8C0
S3150800987030B51248124D134C89B0FFF7E3FD124B71
S3150800988002930122694605200092FFF7DDFF68462C
S31508009890FFF79CFF002809DB0CD121466846FFF735
S315080098A083FB6846FFF792FF0028F5DA286801F07F
S315080098B01DFDECE72146FFF793FBEEE704A0002029
S315080098C0E41702084D980008D8180208F0B5184D94
S315080098D08BB003E09DF8070000F04AF80DF1070188
S315080098E02846FFF70BFF04460028F3D102A8FFF726
S315080098F06DFF051E0F4E104F0CDB6CB19DB931463E
S3150800990002A8FFF751FB02A8FFF760FF051E4FF0FC
S315080099100104F2DA0BB0F0BD214632463846FFF7AD
S3150800992083FA002DEBD031462846FFF759FBE6E7C8
S3150800993004A000206D980008F818020810B50A4B14
S315080099400A4988B0D3E90023029101240021009432
S315080099500591052003246946CDE90340CDE9062390
S31508009960FFF772FF08B010BD201802081419020884
S315080099700A2838B5044607D0074D2146284600F080
S3150800998057F80028F9D038BD034D0D21284600F0B8
S315080099904FF80028F9D0EFE72818020810B5044652
S315080099A020482368D96821F40051D96023F440611E
S315080099B0002281421A61DA605A612FD003F01CF83E
S315080099C002466168184BA3FB02021848A3FB013143
S315080099D04FF47A7C520949090CFB02F20901B2FBE1
S315080099E0F1F32268A0FB034189090CFB11331B0123
S315080099F003F5FA73A0FB0303C3F3831343EA0113C6
S31508009A009360D36843F00C03D360536943F00103B2
S31508009A105361D36843F40053D36010BD03F004F8D0
S31508009A200246CEE7001001401F85EB51D34D621068
S31508009A300368186810F080001CBF59600120704741
S31508009A4003681A68920646BF5868C0B24FF0FF30DE
S31508009A50704700BF012908D0022905D10268D368DA
S31508009A6043F02003D360704770470268D36843F019
S31508009A708003D360704700BF012908D0022905D1A9
S31508009A800268D36823F02003D360704770470268E2
S31508009A90D36823F08003D360704700BF03681A6851
S31508009AA0910606D41B681B0600D470470848FFF7C2
S31508009AB063BD10B504460648FFF796FD23681B6884
S31508009AC01A0600D410BDBDE810400148FFF754BD82
S31508009AD004A00020406A704738B5456A0446B5B107
S31508009AE00268C3699269D35C0B700168C3690A6925
S31508009AF001339342C36104BF0023C361436A9A4298
S31508009B000DD0013B636201250BB1284638BD236899
S31508009B101868036801211B699847284638BD4B68B1
S31508009B20186801F097FC002801DB636AE9E701235E
S31508009B30A3606FF00405E8E7036810B5DA68044621
S31508009B40806990421CD05A696369D1542268636956
S31508009B50D16801338B42636104BF00236361A36943
S31508009B601BB10133A361012010BD9368186801F089
S31508009B7071FC002806DBA3690133A3610120F3E722
S31508009B80002010BD0123A3606FF0040010BD00BFC4
S31508009B90704700BF704700BF704700BF704700BFDF
S31508009BA0704700BF0148FFF795BF00BF54A60020C5
S31508009BB001460148FFF790BF54A600200146014818
S31508009BC0FFF7BABF54A6002010B500F0F7FA064C06
S31508009BD001E001F08BFB022003F072FE03462046EB
S31508009BE0002BF6D010BD00BF40420F00704700BFE3
S31508009BF007F0C2BF012806D0022803D1034B012271
S31508009C001A6070477047024B18607047E4AA002034
S31508009C10E8AA0020012806D0022803D1044B002216
S31508009C201A6070477047034B00221A60704700BFDE
S31508009C30E4AA0020E8AA00200148FFF74BBF00BFAE
S31508009C407CA6002001460148FFF746BF7CA60020F7
S31508009C5001460148FFF770BF7CA60020704700BF89
S31508009C60704700BF704700BF704700BF704700BF0E
S31508009C7008B5FFF705FBFFF705FBFFF705FBFFF741
S31508009C8005FBFFF705FBFFF705FBFFF705FBFFF7EE
S31508009C900DFBFFF70DFBFFF71FFBFFF71FFBFFF79A
S31508009CA01FFBFFF71FFBFFF71FFBFFF71FFBFFF766
S31508009CB01FFBFFF741FBFFF74FFBBDE80840FFF727
S31508009CC05BBB00BF01F0FAB90148FFF759BB00BFFB
S31508009CD0C017020808B501F09FF801F0A3FB01F0D0
S31508009CE087FC01F095FDBDE8084001F069BE00BF9C
S31508009CF00EB400B58AB00BAA02A852F8041B01924A
S31508009D00FFF77EF902A90020FFF79EFD0AB05DF86D
S31508009D1004EB03B0704700BF08B500F0E1F8024A4B
S31508009D20024B12681A6008BDBC1D0208000000201C
S31508009D3070B520F01F040A4E84B004F58075D4E986
S31508009D400032A068E16802911034CDE9002031465E
S31508009D5022460020FFF7CCFFA542F0D104B070BD23
S31508009D60CC1E020838B512490020FFF7C1FF114979
S31508009D700020FFF7BDFFEFF30885EFF309846A4675
S31508009D800D490020FFF7B4FF0C492A460020FFF7CB
S31508009D90AFFF2846FFF7CCFF094922460020FFF708
S31508009DA0A7FF2046FFF7C4FF00F0DCFEFEE700BF72
S31508009DB0E81E0208F81E02080C1F0208141F0208F3
S31508009DC0201F020808B503490020FFF791FF00F09D
S31508009DD0C9FEFEE72C1F020800B5002083B000F07C
S31508009DE089F800240194019BB3F5801F06DA019BCC
S31508009DF001330193019BB3F5801FF8DB002000F0C7
S31508009E00A1F8EFE72A4B1A6842F4007230B51A60D7
S31508009E101A6842F480621A601A6842F4807289B03D
S31508009E2000241A6000F096F800F024FE204600F0A0
S31508009E3061F8204B01941A6B1F4842F008021A6316
S31508009E401A6B02F008020192019A02945A6C42F0C7
S31508009E5020025A645B6C03F02003022102934FF43C
S31508009E60804304910691082503A90393029B07954D
S31508009E700123059302F032FA4FF400730E48039358
S31508009E8003A9079502F02AFA0C480D4904614FF414
S31508009E90E1320C23C0E90012C0E90244C0E90534E6
S31508009EA0C46102F029FF08B909B030BDFFF794FF75
S31508009EB0003C024000380240000C02406C0C0120B5
S31508009EC00014014000207047034A044B1068A3FBA6
S31508009ED000308009704700BFF00D0120D34D621095
S31508009EE0034AD2F8883043F47003C2F888307047C2
S31508009EF000ED00E070B5044686B050B90F4B0090EF
S31508009F001A6B42F001021A631B6B03F001030093FC
S31508009F10009B0B4E012356F824002025022201A996
S31508009F20CDE90332CDE9015302F0D8F956F82400F9
S31508009F300022294602F0BAFA06B070BD003802407F
S31508009F4004000020024B202153F8200002F0B3BA87
S31508009F500400002030B595B00023244A0093116C04
S31508009F60234841F080511164126C02F0805200922D
S31508009F70009A0193026822F4404242F400420260C9
S31508009F80026802F440420221012401924FF4800043
S31508009F904FF48032CDE90742CDE90933CDE90C31DA
S31508009FA0082460220E90042307A8CDE90F42CDE9C4
S31508009FB01113019D139102F08FFA80B902200F2424
S31508009FC00023CDE902404FF48052052102A8CDE9CD
S31508009FD00432069302F056FC20B915B030BDFFF7DF
S31508009FE0FBFEEBE7FFF7F8FE15B030BD0038024080
S31508009FF000700040024B0146186805F00DBD00BF11
S3150800A000EC000020014B186805F013BDEC00002099
S3150800A01008B5034B0146186805F045FD002008BD44
S3150800A020E800002030B5334C83B00546206805F0BB
S3150800A0303DFD05283ED1632D2FDC15F1630F4BDB63
S3150800A040002DB8BF6B422C4AB4BF5BB22B46DBB2BD
S3150800A050A2FB0312D10801EB8101A3EB41030A46D7
S3150800A0605BB2264903EB83030A440B4468460DF1A9
S3150800A070050E12F801CB13F8011B41EACC0100F8D2
S3150800A080011B8645F5D12068694605F04DFD58BB8C
S3150800A090002D12DB002003B030BD1949206805F0F9
S3150800A0A043FD0028F6D01649206803B0BDE83040C5
S3150800A0B005F03ABD062003B030BD022220683223DF
S3150800A0C0114605F01DFD0028E4D00222206832233F
S3150800A0D0114605F015FDDEE70A49206805F024FD5E
S3150800A0E00028D7D00749DFE72068694605F01CFD38
S3150800A0F0D1E700BFE8000020CDCCCCCC541F020825
S3150800A1001E2002081420020803F0E1BC0EB400B5B4
S3150800A1108AB00BAA02A852F8041B0192FEF770FF38
S3150800A12002A90320FFF790FB0AB05DF804EB03B021
S3150800A130704700BF00B583B00DF1060003F024F99F
S3150800A14020B9BDF8060003B05DF804FB03490320F7
S3150800A150FFF7DCFF002003B05DF804FB642102086A
S3150800A16000B583B00DF1060003F0FDF820B9BDF87F
S3150800A170060003B05DF804FB03490320FFF7C6FF9A
S3150800A180002003B05DF804FB88210208014803F0AB
S3150800A190BDBE00BFB00C0120024B0146186803F093
S3150800A1A0C3BE00BFB00C0120024B0146186803F07D
S3150800A1B0E2BE00BFB00C012004F03ABA08B501F0BF
S3150800A1C075FA054B054801221A7003F0BDF801F02F
S3150800A1D081FA002008BD00BFB40C0120C40000208D
S3150800A1E00EB400B58AB00BAA02A852F8041B019255
S3150800A1F0FEF706FF02A90320FFF726FB0AB05DF863
S3150800A20004EB03B0704700BF3E2101F053BC00BF0A
S3150800A21010B582B001AA002101F06AFC10B90198B4
S3150800A22002B010BD044603490320FFF7D9FF604278
S3150800A23002B010BDAC21020810B584B01C46CDE9A9
S3150800A24001240091069C039404236A46052101F023
S3150800A250B3FC04B010BD00BF0EB400B58AB00BAA9B
S3150800A26002A852F8041B0192FEF7CAFE02A90320AF
S3150800A270FFF7EAFA0AB05DF804EB03B0704700BFCF
S3150800A28010B50388B3F5806F18BFC3F387024388F8
S3150800A29082B008BFFF22B3F5806F8DF8042018BF7F
S3150800A2A0C3F38702838808BFFF220C46B3F5806F85
S3150800A2B014BFC3F38703FF2301A88DF805208DF883
S3150800A2C0063004F08DFEE078032820D9A378032B06
S3150800A2D021D9B4F800C0BCF1270F25D9214AC3F10A
S3150800A2E0C80103FB01F182FB0123CA17C2EB631203
S3150800A2F0D2B2C0F1C8031B49A27000FB03F381FB6D
S3150800A3000301DB17C3EB6113E37002B010BD002233
S3150800A31000212180EDE7C3F1C80203FB02F26423A2
S3150800A320B2FBF3F2D2B2F3E7ACF114021421120233
S3150800A33092FBF1F2D2B24FF0640E02FB02F20EFB70
S3150800A34002F10914C1F1C801C3F1C8020CFB01F1FD
S3150800A35003FB02F2B1FBFEF192FBFEF289B2D2B226
S3150800A360D7E700BF1F85EB5130B587B00D4602AA67
S3150800A370052101F0BDFB044678B9DDE90202049B1C
S3150800A380ADF8000029466846ADF80220ADF804305D
S3150800A390FFF776FF204607B030BD03490320FFF7D5
S3150800A3A05BFF204607B030BDD821020870B53D21B5
S3150800A3B082B001F07FFB094C094D01A90646FFF75B
S3150800A3C0D3FF062344F8043B0FCD0FC495E80300DA
S3150800A3D084E80300304602B070BD00BFB80C012007
S3150800A3E00800002000B585B06A46052101F080FB0B
S3150800A3F098B9DDE90023029913440B446422A0F1BD
S3150800A400553002FB03F300F1004080FB0320DB1705
S3150800A410C3EB602005B05DF804FB04490320FFF791
S3150800A4201BFF002005B05DF804FB00BF08220208E8
S3150800A43010B51C4684B00323CDE9011201AA1946BA
S3150800A440039401F0B9FB04B010BD00BF0EB400B50B
S3150800A4508AB00CAA02A806490192FEF7D1FD02A904
S3150800A4600320FFF7F1F90AB05DF804EB03B0704773
S3150800A4703022020810B53F218AB001F01BFB02AA60
S3150800A4800621044601F034FB0499089A0D4B0398FB
S3150800A490DA609142C3E900100FDA01AA04212046C6
S3150800A4A001F026FB10B920460AB010BD0649032064
S3150800A4B0FFF7CCFF20460AB010BD002420460AB09C
S3150800A4C010BD00BF340D01203022020830B583B01C
S3150800A4D001AA042101F00CFBC8B9019C0F4A1048D7
S3150800A4E0D368D2E90015641A42F21072641B02FBA3
S3150800A4F004F45B1A94FBF3F323EAE373A0FB032348
S3150800A5009B0900EE103AB8EEC00A03B030BD044607
S3150800A51004490320FFF79AFF6442DFE7340D012060
S3150800A520D34D62103022020810B582B001AA042168
S3150800A53001F0DEFAB8B9019B0E490F4A0868C968E6
S3150800A5401B1A41F60E24091A04FB03F393FBF1F3D5
S3150800A55082FB0312DB17C3EBA21300EE103AB8EE28
S3150800A560C00A02B010BD044604490320FFF76EFF77
S3150800A5706342E1E7340D0120D34D62103022020810
S3150800A5800EB400B58AB00CAA02A806490192FEF7D5
S3150800A59037FD02A90320FFF757F90AB05DF804EB67
S3150800A5A003B0704750220208F0B585B00024012197
S3150800A5B00646039401F09AFB70B9104F0A2503A9C1
S3150800A5C0304605F09BFD0446082C384610D100F0AD
S3150800A5D08DFE013DF3D1204605F034F8084A009077
S3150800A5E0084933460320FFF7CBFF002005B0F0BD2E
S3150800A5F0002CF0D1039805B0F0BD00BF40420F0013
S3150800A6006C2202085022020830B5134685B04FF472
S3150800A6107A72054605F09EFD044610B9204605B037
S3150800A62030BD2B681B78039305F00CF8044A00909C
S3150800A6300449039B0320FFF7A3FF204605B030BD5E
S3150800A640842202085022020830B5002285B011463D
S3150800A650054605F07FFE044610B9204605B030BD14
S3150800A6602B681B78039304F0EDFF054A0090054913
S3150800A670039B0320FFF784FF204605B030BD00BFCB
S3150800A680982202085022020810B586B0002305A9B0
S3150800A6900446059301F0A8F910B9059806B010BD4F
S3150800A6A023681B78039304F0CDFF054A00900549FB
S3150800A6B0039B0320FFF764FF059806B010BD00BF93
S3150800A6C0B02202085022020810B586B0002305A958
S3150800A6D00446059301F090F910B9059806B010BD27
S3150800A6E023681B78039304F0ADFF054A00900549DB
S3150800A6F0039B0320FFF744FF059806B010BD00BF73
S3150800A700C822020850220208036810B50446586891
S3150800A71004F042FC2268064B5278053083FB00138E
S3150800A720C017C0EBA300012A08BF404210BD00BFF6
S3150800A7306766666630B5054685B0006801F066F955
S3150800A740044610B9204605B030BD2B681B78039324
S3150800A75004F078FF044A00900449039B0320FFF79E
S3150800A7600FFF204605B030BDE0220208502202083D
S3150800A77030B54B6823F003037F2B89B035D89B107F
S3150800A780002203EB421C00EB8C0CDCF87440002C16
S3150800A7903CD0C1E90240E16001F10B0424F0030456
S3150800A7A001F1080EA6450FD02048214B02904FF420
S3150800A7B01C72022469460020CDE903230094FFF7A2
S3150800A7C043F8FFF7CFFAFEE7CCF87410012101FA37
S3150800A7D002F401FA03F3016900EB820221430161E5
S3150800A7E051690B43536109B030BDB3FA83F2C2F124
S3150800A7F01A04E34083F02003C2F1190203EB421C5A
S3150800A80000EB8C0CDCF87440002CC2D10749094BCC
S3150800A810029140F26A22022569462046CDE90323C1
S3150800A8200095FFF711F8FFF79DFAFEE7F8220208F0
S3150800A8304C2302081C2302080EB400B58AB00BAAE2
S3150800A84002A852F8041B0192FEF7DAFB02A90020BF
S3150800A850FEF7FAFF0AB05DF804EB03B0704700BFD5
S3150800A86030B511F0030589B035D1083A22F0030353
S3150800A8701C4A0C46A3F10C01914223D8254643F005
S3150800A880010355F804296B602946FFF771FF6B68C9
S3150800A89033F0030007D0231D0344022243E9015283
S3150800A8A0204609B030BD1049104B029140F2C31240
S3150800A8B002246946CDE903230094FEF7C5FFFFF796
S3150800A8C051FAFEE728460A4B0A491422FFF7B4FF55
S3150800A8D0284609B030BD002007490422FFF7ACFF1F
S3150800A8E00020DEE7F4FFFF3FF8220208E82302080B
S3150800A8F008000040342402080024020810F003016E
S3150800A90010B516D104460161C0E902006022143070
S3150800A91016F02AFE04F1F00204F54F61A2F1800355
S3150800A92043F8044F9342FBD180328A42F6D120463F
S3150800A93010BD0449042200200024FFF77DFF2046AD
S3150800A94010BD00BF7424020870B50E460546FFF711
S3150800A950D5FFA6F67442044605F67441FFF780FF54
S3150800A960204670BD4FF0E02307491A69074822F0D0
S3150800A97001021A61596199611A69002142F00502BA
S3150800A9801A610160704700BF00770100440D01207D
S3150800A9904FF0E02300221A61704700BF034A13688C
S3150800A9A003F57A73136000F0E3BA00BF440D012083
S3150800A9B00EB400B58AB00BAA02A852F8041B01927D
S3150800A9C0FEF71EFB02A90020FEF73EFF0AB05DF85F
S3150800A9D004EB03B0704700BF031F0B2B11D80E4BB7
S3150800A9E0820853F822301A6800F00300C0004FF0BE
S3150800A9F0FF0C0CFA00FC22EA0C0281401143196094
S3150800AA007047A0F11003652BFAD823F0030303F16E
S3150800AA10604303F56443E6E73C2602080438032846
S3150800AA200BD8DFE800F01D140B024FF0E022D2F835
S3150800AA30243D43F40023C2F8243D70474FF0E0223A
S3150800AA40D2F8243D43F48023C2F8243D70474FF0E2
S3150800AA50E022D2F8243D43F40033C2F8243D70477F
S3150800AA604FF0E022D2F8243D43F48033C2F8243D67
S3150800AA70704700BF10B4BFF34F8F102383F31188BC
S3150800AA803248334A00230121036011604FF0E02267
S3150800AA903049C2F8081DD2F8181D2F4821F0FF01C9
S3150800AAA0C2F8181DD2F8181D006821F47F41C2F8B3
S3150800AAB0181DD2F8181D21F47F01C2F8181DD2F806
S3150800AAC01C1D21F07F41C2F81C1DD2F8201D21F063
S3150800AAD0FF01C2F8201DD2F8201D21F47F0141F4A0
S3150800AAE07001C2F8201DD2F8241D41F48031C2F845
S3150800AAF0241DD2F8241D41F40031C2F8241DD2F8D1
S3150800AB00241D41F48021C2F8241DD2F8141D21F415
S3150800AB100071C2F8141DD2F8881D4FF0404441F464
S3150800AB207001C2F8881DC2F8344F60B100EB80008E
S3150800AB300A4A0B4C4000116944F823100A33834231
S3150800AB4002F11802F7D15DF8044B70474C0D01204D
S3150800AB50480D012000800008A81E0208401E0208B1
S3150800AB60D00B012082B0044B0193019B13B1019BCA
S3150800AB7002B0184702B070470000000070B5A0F197
S3150800AB800F0CBCF1660F88B02ED80C4602F11001E6
S3150800AB900F2919D80F283DD05342DBB2A0F1100176
S3150800ABA0C3F110034FEA511C01F01F0201261901D7
S3150800ABB0224B964043F82C604FEA8C05FFF70CFFB2
S3150800ABC0E30721D408B070BD1D481E4B02904FF410
S3150800ABD09272022469460020CDE903230094FEF709
S3150800ABE033FEFFF7BFF8FEE71548174B029040F211
S3150800ABF02312022469460020CDE903230094FEF7B8
S3150800AC0023FEFFF7AFF8FEE705F1604505F5614558
S3150800AC102E60D7E74FF0E02553422A69DBB222F0CF
S3150800AC200202C3F110032A611901FFF7D5FEE207F4
S3150800AC30C8D52B6943F002032B61C3E780E100E026
S3150800AC40A8240208F8240208DC24020810B5EFF349
S3150800AC501184EFF30582054B53F822309847044BCD
S3150800AC6000221A6084F3118810BD00BFB81A0208C2
S3150800AC70480D0120F0B587B0036A0768466A059350
S3150800AC800446EFF305852C49C5F308050020FFF7B0
S3150800AC908FFECDE900672949059B02942A460020C4
S3150800ACA0FFF786FE032D38D0042D28D0052D11D0A8
S3150800ACB0062D0AD122490020FFF77AFE214B2249A8
S3150800ACC09A6A0020120CFFF773FE07B0BDE8F04041
S3150800ACD0FFF748B81B4C1D490020FFF769FEA26A1A
S3150800ACE01949C2F307220020FFF762FEA36A1B0474
S3150800ACF0EBD5A26B16490020FFF75AFEE5E7154982
S3150800AD000020FFF755FE144A14490020FFF750FEAD
S3150800AD1007B0BDE8F040FFF725B811490020FFF756
S3150800AD2047FE084B0F49DA6A0020FFF741FE07B0D5
S3150800AD30BDE8F040FFF716B830250208502502088E
S3150800AD40FC25020800ED00E0DC250208D0250208F3
S3150800AD50EC250208B425020850ED00E0C0250208DB
S3150800AD6094250208A425020810B5EFF305840749BF
S3150800AD700020FFF71DFEC4F3080205490020FFF76F
S3150800AD8017FEBDE81040FEF7EDBF00BF0C2602080F
S3150800AD902C260208F8B5FEF76BFFFFF733F800F02C
S3150800ADA0BBF8FEF797FF0C4B1D6855B10B4E0024F8
S3150800ADB0371F57F8343056F8340001349847AC42F8
S3150800ADC0F7D1074A074B12681A6000F0CFF8064B0E
S3150800ADD001221A60FDF7C1FAB41E0208941C020883
S3150800ADE0440D0120F00D0120500D0120F8B5084B47
S3150800ADF01D6855B1074E0024371F57F8343056F8EA
S3150800AE00340001349847AC42F7D1FEF7DBFF00BFA8
S3150800AE10B81E0208341E02082DE9F047234D244CBB
S3150800AE2024482549254B00222A6022600122026017
S3150800AE300A6003F18002C3E9003308339342FAD16A
S3150800AE401F4A204B15684FF0000AA3F800A05DB30F
S3150800AE501D4CDFF87C801D4F564601E0AA4523D0DD
S3150800AE6054F8043B013B03EB830908EBC90903EBE0
S3150800AE70430399F80F2007EBC3036FF30002C9F8E1
S3150800AE800830484689F80F2000F024F8D9F8083029
S3150800AE90C9F814601B68DB070AF1010ADED54846C3
S3150800AEA000F026F8AA45DBD1BDE8F0875C0D012045
S3150800AEB0600D0120580D0120540D0120680D012058
S3150800AEC0A81E0208640D0120BC1E0208401E0208C6
S3150800AED0B00B0120C37B82680021017323F00E03A7
S3150800AEE0127B427343F008038273C373704700BF33
S3150800AEF082685269203A10B40021054C8261012209
S3150800AF00C46141625DF8044B027300F04BBF00BF99
S3150800AF10F5830008000000009FED0B7B0C4B0D49E4
S3150800AF200D4A0E4810B483ED007B0D4C00230B60D0
S3150800AF300C4923600C4C04600B605DF8044B1260EE
S3150800AF40704700BFAFF3008000000000000000005B
S3150800AF50000E0120EC0D0120500C0120E80D012007
S3150800AF60F40D0120F80D0120003E14F4704700BFCF
S3150800AF702DE9F04F8BB0EFF3148515F0020301931A
S3150800AF800FD04448444B049040F25122022402A9AF
S3150800AF900020CDE905230294FEF756FCFEF7E2FEF3
S3150800AFA0FEE7DFF80C81D8F80030002B58D1BFF344
S3150800AFB04F8FEFF31182102383F312883749012349
S3150800AFC00A60C8F80030DFF8ECA0DFF8EC90344FE0
S3150800AFD0344ECAF8003009F1040401F08FF8D9F8A4
S3150800AFE00000A0422AD3002208E0DBE90230984795
S3150800AFF0D9F80000A0424FF00102EED3D9F804B008
S3150800B0003B68DBF800103568C91AEB1A9942A0F1BB
S3150800B010040C11D8019BC9F800C00133A44501935B
S3150800B020E3D303682046196801F030F8D9F80030F0
S3150800B0305B6803605860D8E7002ACED1019BFBB154
S3150800B040FFF794FF0023CAF80030C8F80030BFF3B2
S3150800B0504F8F124B1B6883F311880BB0BDE8F08F36
S3150800B0600C49114B049140F25222022402A901987C
S3150800B0700294CDE90523FEF7E7FBFEF773FEFEE72C
S3150800B0800A4B0493012202A905200292FEF7DCFB73
S3150800B090D6E700BF4C2602086C2602084C0D012094
S3150800B0A0E80D0120EC0D01207C2602088C260208FA
S3150800B0B0480D0120F40D0120500C012070B52C4CD0
S3150800B0C02568002D50D1002826D042DD294B1B6863
S3150800B0D083423EDB284B013800EB800003EBC000BF
S3150800B0E0BFF34F8FEFF31183102282F31288234E9A
S3150800B0F0336001232360037BE3B183681B689907E8
S3150800B10011D56FF02A0500232360BFF34F8F3368EC
S3150800B11083F31188284670BDEFF314839A0718D570
S3150800B120174B1868DCE7C37BDA07EAD443F0010358
S3150800B130C373E8E7FFF7DCFE114A124B106819687B
S3150800B1408842E0D0EFF314839B0706D5FDF71BF979
S3150800B150D9E76FF01105284670BD4FF0E0234FF090
S3150800B1608052C3F8042DCEE76FF01805D2E700BF6A
S3150800B170480D0120A81E0208B00B01204C0D012025
S3150800B1805C0D0120600D012070B582B0EFF31483C9
S3150800B190980719D51C4D2C68B4B91C4B1B689BB174
S3150800B1A0BFF34F8F102383F31188194A01231460C4
S3150800B1B02B60184E3068C37B59070AD49A0713D5F3
S3150800B1C064F34103C37306E06FF01804204602B027
S3150800B1D070BD6FF0340400232B60BFF34F8F83F3E9
S3150800B1E01188204602B070BD0423037300F002FEE6
S3150800B1F03068019401AB0361074B32461968FDF7C5
S3150800B200C2F8019CE7E700BF480D0120540D012054
S3150800B2104C0D01205C0D0120600D012070B52D4CF0
S3150800B2202568002D53D1002822D033DD2A4B1B6810
S3150800B23083422FDB294B013800EB800003EBC0006B
S3150800B240BFF34F8FEFF31183102282F31288244E37
S3150800B250336001232360037B8BB96FF02805002335
S3150800B2602360BFF34F8F336883F31188284670BD78
S3150800B270EFF314839A070DD51A4B1868E0E723F005
S3150800B2800203042B0DD0C37B9A0707D443F00203AD
S3150800B290C373E4E76FF01105284670BD6FF02A0501
S3150800B2A0DDE700F047FE0F4A0F4B10681968884221
S3150800B2B0D5D0EFF314839B0702D5FDF764F8CEE7E4
S3150800B2C04FF0E0234FF08052C3F8042DC7E76FF024
S3150800B2D01805CBE7480D0120A81E0208B00B01206F
S3150800B2E04C0D01205C0D0120600D0120EFF3148345
S3150800B2F09A0725D570B5224D2B6886B0002B39D113
S3150800B300204A1268002A35D01F4A9042044634D88B
S3150800B310BFF34F8F102282F311881C4901220B605C
S3150800B3202A601B4E3068C37B5B070CD56FF0340070
S3150800B33000232B60BFF34F8F83F3118806B070BDCF
S3150800B3406FF0180070470823037300F053FD336845
S3150800B350059301AA1A6102A80E4B0190214604938F
S3150800B36000F006FF0C4B306819683246FDF70BF8FB
S3150800B3700198DDE76FF01800E0E76FF01000DDE7F1
S3150800B380480D0120540D012000286BEE4C0D0120BC
S3150800B3905C0D012095BF0008600D012008B5EFF38C
S3150800B3A014839B0719D5194B1A68CAB1184B1A6822
S3150800B3B06AB9184A116809B90121116016490A685B
S3150800B3C0F2B901221A6000F0B9FC144B1860144B4C
S3150800B3D0186800F07FFDFCF7D2FF6FF0180008BD73
S3150800B3E0BFF34F8FEFF31180102282F312880A49B8
S3150800B3F0012208601A60064B1A68002AE7D1D8E7C6
S3150800B4001209102A1CBF00220A60DAE7480D01203B
S3150800B410540D0120580D01204C0D0120600D01200E
S3150800B4205C0D0120084B186868B1084B084A03EB05
S3150800B43000105168D960C3E901321B60103383429A
S3150800B44002F10C02F5D17047A41E020820BB0020A9
S3150800B450C41D0208F0B5314C256889B0002D5AD1B3
S3150800B460002855DD2E4B1B68834251DB431EBFF374
S3150800B4704F8FEFF31182102181F31288294E326023
S3150800B48001222260284A190102EB031388588342D5
S3150800B4901AD007688F507B6000F04CFD234A244B76
S3150800B4A010681968884205D0EFF314839B0728D5DE
S3150800B4B0FCF769FF00232360BFF34F8F336883F3DC
S3150800B4C01188284609B0F0BD5A6893420ED019492A
S3150800B4D0194B02919A22022469462846CDE903238C
S3150800B4E00094FEF7B1F9FEF73DFCFEE7D3E9021238
S3150800B4F089688A4202D36FF02A05DBE70132DA60EF
S3150800B500D8E74FF0E0234FF08052C3F8042DD1E777
S3150800B5106FF01105D5E76FF01805D2E7480D012041
S3150800B520A41E02084C0D012020BB00205C0D012042
S3150800B530600D0120BC260208D8260208EFF3148302
S3150800B5409A0726D530B5234C226883B0002A3BD10A
S3150800B550214B1B68002B37D0002838DD1F4B1B6892
S3150800B560834234DBBFF34F8F102383F311881C49C2
S3150800B57001230A6023601B4D2B68DB7B5B070CD419
S3150800B5801949431E01EB0310C3688BB1013BC36025
S3150800B59005E06FF01802104670476FF0340200237A
S3150800B5A02360BFF34F8F83F31188104603B030BD75
S3150800B5B06A46402100F03EFD0C4B286819682A4669
S3150800B5C0FCF7E1FE009AEAE76FF01802EDE76FF084
S3150800B5D01102EAE7480D0120540D0120A41E0208B5
S3150800B5E04C0D01205C0D012020BB0020600D0120C0
S3150800B5F02DE9F843154B1F682FB3154D154CDFF889
S3150800B600589000264FF0010807E00136BE426360F5
S3150800B61005F1140504F1180415D02B68256013F0FC
S3150800B6200203C4E90494F0D020462B69C4F80480C8
S3150800B630013640F8083F00F08DFDBE4205F11405BD
S3150800B64004F11804E9D1BDE8F88300BFA01E02087A
S3150800B650901A0208ECAA00205DB600080268836802
S3150800B660D268134470B5044640F8083F00F072FDEE
S3150800B6700C4D00232B60BFF34F8F0B4E336883F3BB
S3150800B68011882368D3E9010290472B684BB9BFF3A9
S3150800B6904F8FEFF31182102383F312880123326050
S3150800B6A02B6070BD480D01204C0D0120074B1A6810
S3150800B6B052B9BFF34F8FEFF31180102282F312882D
S3150800B6C00349012208601A6000207047480D0120CE
S3150800B6D04C0D0120064B1A683AB100221A60BFF3D6
S3150800B6E04F8F044B1B6883F311880020704700BFF7
S3150800B6F0480D01204C0D0120EFF314839B071BD541
S3150800B7000F4B1868C0B910B4BFF34F8FEFF311840D
S3150800B710102282F312880B4A0121146019600A4C20
S3150800B7200A49206008601860BFF34F8F136883F3D7
S3150800B73011885DF8044B70476FF01800704700BF1A
S3150800B740480D01204C0D0120580D0120540D0120F3
S3150800B75070B5EFF314839B071DD51D4D2C68D4B91E
S3150800B760BFF34F8FEFF31182102383F31288194E1C
S3150800B770012332602B60184A136033687BB11B09BA
S3150800B780102B0CD000232B60BFF34F8F336883F345
S3150800B7901188204670BD6FF01804204670BD0F4B07
S3150800B7A001221A6000F0CAFA0D4B0E4A18600146CB
S3150800B7B01068C37B03F00C030C2B04D08842E1D03D
S3150800B7C0FCF7E1FDDEE700F085FBFCF7D8FD00BFDE
S3150800B7D0480D01204C0D0120580D0120540D012063
S3150800B7E0600D01205C0D0120EFF314839B0702D541
S3150800B7F0054B1B680BB101207047044B1868B0FA5B
S3150800B80080F04009704700BF480D0120540D012003
S3150800B810074B70B51E6856B1064C0025D4E90112CF
S3150800B820013554F80C0BFFF7A9F9B542F6D170BDEE
S3150800B830AC1E0208A81C0208A0F10F03662B50D8FC
S3150800B8402A490A6830B41AB3294B440900F01F0C78
S3150800B85053F82440012303FA0CF323423CD00F2863
S3150800B86033D0A0F110035D09224C03F01F03012019
S3150800B87000FA03F344F825301ABB1F4C00230B606B
S3150800B880BFF34F8F236883F31188104630BC704787
S3150800B890BFF34F8FEFF31183102484F31288164CED
S3150800B8A0236001230B60124D4FEA501C55F82C50AB
S3150800B8B000F01F0C03FA0CF32B42D0D16FF02802CC
S3150800B8C0DCE70022104630BC70474FF0E0200369E1
S3150800B8D023F002030361CFE76FF02802104630BC5D
S3150800B8E070476FF010021046704700BF480D0120E0
S3150800B8F0701A020880E100E04C0D0120A0F10F0348
S3150800B900662B53D830B42B4C216831B32A4B4209E5
S3150800B91000F01F0C53F82220012303FA0CF31342FC
S3150800B9203FD00F2836D0A0F1100253099B0003F12F
S3150800B930604303F5614302F01F02012000FA02F298
S3150800B9401A6019BB1D4A00232360BFF34F8F136883
S3150800B95083F31188084630BC7047BFF34F8FEFF367
S3150800B9601183102282F31288144A1360012323607C
S3150800B970114D4FEA501C55F82C5000F01F0C03FAD5
S3150800B9800CF32B42CDD16FF02801DCE700210846E5
S3150800B99030BC70474FF0E022136943F0020313618D
S3150800B9A0CFE76FF02801084630BC70476FF01001EA
S3150800B9B008467047480D0120701A02084C0D0120F0
S3150800B9C0074B70B51D6855B1064E05EB45050024B5
S3150800B9D056F824000334FFF721F8AC42F8D170BDBD
S3150800B9E0B01E02088C16020800B583B001AA04F03E
S3150800B9F00BFC03B05DF804FB00B583B00A4601A949
S3150800BA0004F002FC03B05DF804FB00BF10B5044661
S3150800BA1082B0084603F0D2FA002102460190204679
S3150800BA2003F0FAFD019A08B902B010BD00212046BC
S3150800BA3002B0BDE8104003F0EFBD00BF70B5054683
S3150800BA400E4601E0FFF752FC3146284603F09BFFFD
S3150800BA50082804464FF47A70F4D01CB1204670BD0D
S3150800BA60FFF744FC284603F0A0FF082803464FF4D6
S3150800BA707A70F5D063B1284603F09DFF01E0FFF721
S3150800BA8035FC284603F091FF08284FF47A70F6D063
S3150800BA902B681B783D2B03D03E2B07D0252BDDD1F9
S3150800BAA047F23050FFF722FC204670BD4CF250306A
S3150800BAB0F8E700BF30B5044683B00D4601E0FFF74E
S3150800BAC015FC01A9204602F0A9FC082803464CF2F9
S3150800BAD05030F4D04BB9019803681B78AB4202D0BA
S3150800BAE05C2D18BF002003B030BD002003B030BD68
S3150800BAF0F0B5437A8B4283B0054614460DD00E4600
S3150800BB00FFF79CFF48B16B7AB34243D031462846CB
S3150800BB1003B0BDE8F040FFF791BF01A9284603F03E
S3150800BB2029FF90BB697A0DF103030DF1020228463D
S3150800BB3003F00AFF074698BB9DF80250002D39D03E
S3150800BB40019E9DF80310013D731C224601F0030176
S3150800BB5053FA85F53046344610E0012914BF96F9A4
S3150800BB600060B4F900601660AB421E4602F104029A
S3150800BB7004F1020400F104000CD0013302290CD0B0
S3150800BB800329EAD106681660EEE701A9284603F0FC
S3150800BB90F1FE0746384603B0F0BD06681660E3E7CF
S3150800BBA0697A0DF103030DF10202284603F0CCFE73
S3150800BBB00746EFE70327EDE72DE9F0411F46437AED
S3150800BBC099428AB0044615460DD08846FFF736FFD7
S3150800BBD0637A40B143454AD0414620460AB0BDE89B
S3150800BBE0F041FFF72BBF19460DF106020DF10703C9
S3150800BBF0204603F0A9FE00286AD19DF80630BB420C
S3150800BC0061D10DF108083FB39DF807100DF108083A
S3150800BC102A4605EB870701F0030146464046454696
S3150800BC200DE01368012914BF33702B800432BA4221
S3150800BC3006F1010605F1020500F104000CD00229FF
S3150800BC403ED00329EDD1D2ED007AF8EEE77AC0EDC1
S3150800BC50007AEBE7FFF74AFB617A4246204603F093
S3150800BC60AFFE082806464FF47A70F3D02EB1304658
S3150800BC700AB0BDE8F081FFF739FB204603F0B2FEB3
S3150800BC80082803464FF47A70F5D063B1204603F0CE
S3150800BC90AFFE01E0FFF72AFB204603F0A3FE0828C3
S3150800BCA04FF47A70F6D023681B783D2B03D03E2BD1
S3150800BCB018D0252BDBD140F6B830FFF717FBD6E7AF
S3150800BCC013680360B2E7022630460AB0BDE8F08181
S3150800BCD0617A0DF107030DF10602204603F034FEE2
S3150800BCE00646C4E741F28830E7E700BF30B50546A7
S3150800BCF083B001E0FFF7FAFA01A9284602F08EFBA5
S3150800BD00082804464CF25030F4D084B901980368E8
S3150800BD105B78DD070ED55A0709D513F0080F437A65
S3150800BD2014BF042102218B4201D0FFF787FE20466B
S3150800BD3003B030BD0524204603B030BD144B188827
S3150800BD40A8B1C3B283B1002110F00F03114A08BF8E
S3150800BD50C0F303131A4408BF043112F8013C0E4815
S3150800BD600B4450F833007047000A0821ECE710B579
S3150800BD7088B00A490A4B0291972202246946CDE9FE
S3150800BD8003230094FDF760FDFDF7ECFFFEE700BF17
S3150800BD90640D012020270208680D0120F4260208F8
S3150800BDA01027020890F80EC00E4B0F4A03EBCC0181
S3150800BDB010B44C6844600160206048600B491488E0
S3150800BDC00968012303FA0CF32343138031B1084AA7
S3150800BDD0136813B19B7B634500D910605DF8044B6B
S3150800BDE0704700BF680D0120640D0120540D012025
S3150800BDF0600D012030B5D0E90014827B2D4B2160FF
S3150800BE004C6053F8321003EBC204A14289B005D046
S3150800BE10294B1A68824225D009B030BD6368994219
S3150800BE200ED02648264B02909A2202246946002004
S3150800BE30CDE903230094FDF707FDFDF793FFFEE721
S3150800BE40204C1D4D2388012101FA02F223EA020241
S3150800BE502B6822808342DFD11B4B1868B0B122BB06
S3150800BE602A60D9E7184A106808B11960D4E7174953
S3150800BE70174B02914FF4897202246946CDE90323D0
S3150800BE800094FDF7E1FCFDF76DFFFEE70F49104B47
S3150800BE9002914FF4867202246946CDE90323009481
S3150800BEA0FDF7D2FCFDF75EFFFEE7FFF747FF024608
S3150800BEB0D6E700BF680D0120600D0120BC260208E8
S3150800BEC0D8260208640D0120540D0120F426020824
S3150800BED03027020810B5037BD90704461DD413F092
S3150800BEE07C0F0CD163691BB1114B20461B68984720
S3150800BEF02046FEF7EFFFE37BDA0711D410BD13F0F7
S3150800BF00600F03D0D0E9003213605A6023691868BD
S3150800BF100028E7D000F050F9E4E7FFF76BFFE1E708
S3150800BF206FF30003E3732046BDE81040FEF7E0BF59
S3150800BF30080E012010B503690446186888B010B1C8
S3150800BF4000F03AF9236900221A60237B13F07C007B
S3150800BF500DD09B0703D50223237308B010BD012318
S3150800BF602046237308B0BDE81040FFF71BBF0749FA
S3150800BF70074B0291712202246946CDE903230094F6
S3150800BF80FDF762FCFDF7EEFEFEE700BF3827020864
S3150800BF905427020830B5026900211160027B12F0AD
S3150800BFA07C0189B02AD0920723D5022202731B4A44
S3150800BFB01B4B12681B689A4205D04FF0E0234FF0DE
S3150800BFC08052C3F8042D174B00221A60BFF34F8F17
S3150800BFD0154A116881F3118800BFBFF34F8FEFF33D
S3150800BFE01180102181F3128801211060196009B0AF
S3150800BFF030BD01220273FFF7D5FED8E70B4B0C4C78
S3150800C00002947122022508466946CDE90323009564
S3150800C010FDF71AFCFDF7A6FEFEE700BF5C0D012042
S3150800C020600D0120480D01204C0D012054270208FF
S3150800C0303827020870B5144E336804461973184633
S3150800C0401546FFF7D7FEA36831681B680D61002205
S3150800C050DB072A6006D46368C1E90043196061609A
S3150800C0606C6070BD2368887B9C4203D105E01B6821
S3150800C0709C4202D09A7B8242F9D95A68C1E90032B9
S3150800C080116059606C6070BD5C0D012070B5194C6B
S3150800C090031B22689B1004EBC303934229D8164D51
S3150800C0A02D68A1EB050E10E01A6812681946521B96
S3150800C0B00B1B9B10964504EBC3031AD90A6802604A
S3150800C0C0506022689A42084613D3191D9142EBD84C
S3150800C0D0D3E9006212683668521BA6EB050C624566
S3150800C0E024BF194662460B1B9B10964504EBC303F7
S3150800C0F0E4D870BD500C0120E80D01200E490F4B05
S3150800C10070B40F4C18680B6822680E4D0860C31A85
S3150800C110991821602C680C480C4EA21A08449A42B9
S3150800C120306002D2A14202D3296070BC7047084A27
S3150800C130536801335360F7E7F00D0120440D0120E1
S3150800C140EC0D0120F80D0120003E14F4E80D012045
S3150800C150000E0120054A136810B50446181D21680B
S3150800C160106000F063F80460606010BD500C012098
S3150800C17070B504460E46FFF7C1FF0C4B0C4D1B6805
S3150800C180286803F57A73991904302160286000F04D
S3150800C1904DF8084B1B680460606013B90435A84263
S3150800C1A000D070BDBDE87040FEF7E0BEEC0D012082
S3150800C1B0500C0120F40D0120F8B5194D46682A687F
S3150800C1C02C46131F44F8043BA34218D31368A6420F
S3150800C1D019680DD9701BC010124B55F820701A68D3
S3150800C1E03B68A1EB020C9B1A9C4505EB80000CD31F
S3150800C1F03046FFF74BFF2B685B68036058600A4BB5
S3150800C2001B680BB9A64205D0F8BD37607E6000F002
S3150800C2100DF8F0E7FFF772FFBDE8F840FEF7A6BE97
S3150800C220500C0120E80D0120F40D012030B50E4C0C
S3150800C230A042844616D90D4B1D68A4F1040E491B6D
S3150800C24003E0A445026050600CD9ACEB0E03DB108A
S3150800C25060465EF823200EEB830C13685B1B8B424B
S3150800C260EFD830BD604630BD540C0120E80D0120E2
S3150800C27008B503F0CDFC0028FBD1BDE80840FCF763
S3150800C280E9BF08B503F0AEFC05F0E6FC012003F0B3
S3150800C290B3FC062005F0CAFF002005F067FC08205D
S3150800C2A006F016F8B0B1062005F0E8FF002005F004
S3150800C2B05DFC012003F0A0FC05F0E4FC072005F076
S3150800C2C0B5FFFFF7D5FF02F0BDFA0028F9D102F055
S3150800C2D09DFCF6E7FFF7CCFFE1E700002DE9F04FFC
S3150800C2E06B4ADFF8B481DFF8B49185B000230C6897
S3150800C2F001279F4007EA040537EA040440F0B580A1
S3150800C3004C6824F0100ABAF1020F16D14FEAD30E80
S3150800C31000EB8E0E03F0070BDEF820604FEA8B0B5E
S3150800C3204FF00F0C0CFA0BFC26EA0C0C0E6906FAF9
S3150800C3300BF646EA0C06CEF82060D0F800B04FEAB5
S3150800C340430E4FF0030C0CFA0EFC6FEA0C062BEAB0
S3150800C3500C0B04F0030C0CFA0EFC0AF1FF3A4CEA3B
S3150800C3600B0CBAF1010F0196C0F800C015D8D0F829
S3150800C37008C006EA0C0CCE6806FA0EFA4AEA0C0C55
S3150800C380C0F808C0D0F804C02CEA0707C4F3001C9C
S3150800C3900CFA03FC4CEA07074760C768019E37405A
S3150800C3A08E6806FA0EF63E43C660E6005DD54FF087
S3150800C3B0000BCDF80CB0D8F84470364E47F48047D9
S3150800C3C0C8F84470D8F8447007F480470397039F69
S3150800C3D023F0030707F1804707F59C3703F0030EA0
S3150800C3E0D7F808A04FEA8E0E4FF00F0C0CFA0EFC89
S3150800C3F0B0422AEA0C0C3FD006F58066B0423DD022
S3150800C40006F58066B0423BD006F58066B04239D064
S3150800C41006F58066B04237D0484537D006F500663F
S3150800C420B0420CBF0626072606FA0EF646EA0C06A2
S3150800C430BE601668EF4314F4803F0CBF3E402E439F
S3150800C4401660566814F4003F0CBF3E402E435660F3
S3150800C450966814F4801F0CBF3E402E439660D6683B
S3150800C460A40254BF3E402E43D6600133102B7FF4FE
S3150800C4703EAF05B0BDE8F08F5E46D5E70126D3E7A7
S3150800C4800226D1E70326CFE70426CDE70526CBE724
S3150800C490003C0140000002400038024000140240FF
S3150800C4A00369194214BF0120002070470AB181614F
S3150800C4B070470904FBE7436959404161704700002A
S3150800C4C0044A5169014208B502D0506102F0FCFCE9
S3150800C4D008BD00BF003C01400368F7B50446D8070D
S3150800C4E03BD42368990700F1898023681E0700F169
S3150800C4F0CA8023685D072AD5002301938B4B8C4D90
S3150800C5001A6C42F080521A641B6C03F08053019334
S3150800C510019B2B6843F480732B60FDF7D5FC064618
S3150800C5202B68DA0540F1D380A368804D012B40F0D3
S3150800C530D5802B6F43F001032B67FDF7C5FC7B4EB7
S3150800C540054641F28837336F9B0740F1E880A269B8
S3150800C550002A40F0F180002015E0744B9A6802F03A
S3150800C5600C02042A07D09A6802F00C02082A0CD199
S3150800C5705A68520209D56D4B1B689B03B1D563688F
S3150800C580002BAED1012003B0F0BD6268B2F5803F42
S3150800C59011D11A6842F480321A60FDF795FC634E91
S3150800C5A0054633689F039CD4FDF78EFC401B642820
S3150800C5B0F7D90320E7E75D4DB2F5A02F2B6807D121
S3150800C5C043F480232B602B6843F480332B60E4E725
S3150800C5D023F480332B602B6823F480232B60002AF6
S3150800C5E0DBD1FDF771FC06462B6898037FF579AF1A
S3150800C5F0FDF76AFC801B6428F6D9DAE74B4B9A6884
S3150800C60012F00C0F07D09A6802F00C02082A17D10C
S3150800C6105B68590214D4454B1A68920702D5E2683A
S3150800C620012AAFD11968236921F0F801F82292FA94
S3150800C630A2F2B2FA82F293403C4A0B43136054E7E3
S3150800C640E2683C4B82B101221A60FDF73DFC374E89
S3150800C650054633689B0701D53168E4E7FDF734FCE6
S3150800C660401B0228F5D9A4E71A60FDF72DFC2F4ECA
S3150800C670054633689F077FF538AFFDF725FC401B55
S3150800C6800228F6D995E762692A4B82B10122C3F8D6
S3150800C690802EFDF719FC254E0546736F98073FF562
S3150800C6A028AFFDF711FC401B0228F6D981E7C3F82D
S3150800C6B0802EFDF709FC1D4E0546736F99077FF519
S3150800C6C018AFFDF701FC401B0228F6D971E7FDF704
S3150800C6D0FBFB801B02287FF623AF6AE7052B04D1F4
S3150800C6E02B6F43F004032B6723E72A6F22F001021E
S3150800C6F02A672A6F22F004022A67002B7FF41DAFEF
S3150800C700FDF7E2FB41F2883706462B6F98077FF55F
S3150800C7101EAFFDF7D9FB801BB842F6D949E7FDF7EE
S3150800C720D3FB401BB8427FF60EAF42E70038024003
S3150800C7300070004000004742304DAB6803F00C0320
S3150800C740082B3FF41FAF2E4B022A4FF000021A6641
S3150800C75046D1FDF7B9FB06462B6899013AD4D4E9C8
S3150800C760072147F6C0731143626A93FAA3F3B3FA33
S3150800C77083F39A40A36A5B080A43013B4FF44031AE
S3150800C78091FAA1F1B1FA81F18B4013434FF0706130
S3150800C790E26A91FAA1F1B1FA81F18A401A434FF09F
S3150800C7A0E041236B91FAA1F1B1FA81F18B40134D67
S3150800C7B013436B60124B01221A66FDF785FB04468C
S3150800C7C02B689A013FF5C7AEFDF77EFB001B0228D2
S3150800C7D0F6D9EEE6FDF778FB801B0228BCD9E8E619
S3150800C7E0FDF772FB04462B689B017FF5B4AEFDF797
S3150800C7F06BFB001B0228F6D9DBE600BF00380240B7
S3150800C800000047421C4A936803F00C03082B30D1FA
S3150800C8105168536813F4800F01F03F0147F6C0735F
S3150800C8201BD05068184093FAA3F3B3FA83F3D840A1
S3150800C830124B5843B0FBF1F080000F4B5B684FF486
S3150800C840403203F4403392FAA2F2B2FA82F2D340AB
S3150800C85001335B00B0FBF3F070470948B0FBF1F118
S3150800C8605068184093FAA3F3B3FA83F3D8404843C1
S3150800C870E3E70348704700BF0038024000093D005F
S3150800C8800024F400554B1A6802F00F028A422DE97B
S3150800C890F04104460D462FD32268960736D4D007B2
S3150800C8A03CD44E4B1A6802F00F02AA4200F2868068
S3150800C8B02268510700F18A80130707D5484A21697B
S3150800C8C0936823F4604343EAC1039360FFF79AFF32
S3150800C8D0434B9B68F02203F0F00392FAA2F2B2FAF5
S3150800C8E082F2D3403F4AD35CD8403F4B18600F20B2
S3150800C8F0FDF7E8FA002007E0CAB21A701B6803F0D1
S3150800C9000F038B42C8D00120BDE8F0813449A068E6
S3150800C9108B6823F0F00303438B60C0E76268304BF3
S3150800C920012A1DD11B6813F4003FECD02C4EB368C6
S3150800C93023F003031343B360FDF7C6FA6368012BBC
S3150800C940074641F2883815D1B36803F00C03042B67
S3150800C950A7D0FDF7B9FAC01B4045F5D90320D3E7A0
S3150800C960911E01291B6802D813F0007FDDE713F03A
S3150800C970020FDAE7022B0AD1B36803F00C03082B7F
S3150800C9808FD0FDF7A1FAC01B4045F5D9E6E7032B82
S3150800C9900FD1B36803F00C030C2B82D0FDF794FA81
S3150800C9A0C01B4045F5D9D9E7FDF78EFAC01B4045AF
S3150800C9B0D4D8B36813F00C0FF6D172E7EAB21A703E
S3150800C9C01B6803F00F03AB429DD171E70449E06889
S3150800C9D08B6823F4E05303438B606DE7003C024009
S3150800C9E0003802403C1F020800000020014B18686E
S3150800C9F0704700BF00000020084B1868084B9B686A
S3150800CA004FF4E05203F4E05392FAA2F2B2FA82F239
S3150800CA10D340044AD35CD840704700BF00000020CA
S3150800CA20003802404C1F0208084B1868084B9B68E0
S3150800CA304FF4604203F4604392FAA2F2B2FA82F229
S3150800CA40D340044AD35CD840704700BF000000209A
S3150800CA50003802404C1F02080168074B0B445B0173
S3150800CA6000225A611A62054B0B445B011A602023A7
S3150800CA7080F83A30704700BF0C0010C2140010C28C
S3150800CA802DE9F8430368C1681A69044622F440523E
S3150800CA900A431A612569A268D968C0692A43656983
S3150800CAA021F416412A4321F00C0102430A43DA60B5
S3150800CAB05A69A16922F440720A43B0F5004F5A61D7
S3150800CAC08B4A40F08D8093420BD002F580629342E8
S3150800CAD007D002F58062934203D002F58062934242
S3150800CAE049D1FFF7A1FF63684FF019094FF06408B1
S3150800CAF009FB00F05B00B0FBF3F3B3FBF8F31F018F
S3150800CB00FFF792FF656809FB00F06D00B0FBF5F5CD
S3150800CB10FFF78AFF666809FB00F07600B0FBF6F6B9
S3150800CB20FFF782FFB6FBF8F608FB16566368F600B1
S3150800CB303236B6FBF8F6760009FB00F05B0006F421
S3150800CB40F876B0FBF3F5FFF76FFF6368226809FB19
S3150800CB5000F05B00B0FBF3F3B3FBF8F308FB1353E9
S3150800CB60DB003233B3FBF8F303F007033B443344EB
S3150800CB709360BDE8F883FFF73FFF63684FF0190934
S3150800CB804FF0640809FB00F05B00B0FBF3F3B3FB5E
S3150800CB90F8F31F01FFF730FF656809FB00F06D0029
S3150800CBA0B0FBF5F5FFF728FF666809FB00F076008D
S3150800CBB0B0FBF6F6FFF720FFB6FBF8F608FB1656AD
S3150800CBC06368F6003236B6FBF8F6760009FB00F025
S3150800CBD05B0006F4F876B0FBF3F5FFF70DFFB4E754
S3150800CBE093420AD0434A934207D002F580629342A1
S3150800CBF003D002F58062934246D1FFF715FF6368BA
S3150800CC004FF019094FF0640809FB00F09B00B0FBD0
S3150800CC10F3F3B3FBF8F31F01FFF706FF656809FB9B
S3150800CC2000F0AD00B0FBF5F5FFF7FEFE636809FB03
S3150800CC3000F09B00B0FBF3F3B3FBF8F308FB1353C8
S3150800CC401B013233B3FBF8F303F0F006FFF7ECFEF3
S3150800CC50636809FB00F09B00B0FBF3F5FFF7E4FE01
S3150800CC606368226809FB00F09B00B0FBF3F3B3FB93
S3150800CC70F8F308FB13531B013233B3FBF8F303F045
S3150800CC800F0333433B4473E7FFF7B6FE63684FF081
S3150800CC9019094FF0640809FB00F09B00B0FBF3F399
S3150800CCA0B3FBF8F31F01FFF7A7FE656809FB00F061
S3150800CCB0AD00B0FBF5F5FFF79FFE636809FB00F0D2
S3150800CCC09B00B0FBF3F3B3FBF8F308FB13531B010C
S3150800CCD03233B3FBF8F303F0F006FFF78DFE636813
S3150800CCE009FB00F09B00B0FBF3F5FFF785FEB7E7FD
S3150800CCF0001001400014014010B5044640B390F8F6
S3150800CD00393003F0FF021BB980F8382001F00CFF18
S3150800CD102268242384F83930D36823F40053D36077
S3150800CD202046FFF7ADFE23681A6922F490421A617D
S3150800CD305A6922F02A025A61DA6842F40052DA6025
S3150800CD4000202023E06384F8393084F83A3010BD97
S3150800CD500120FCE770B50446134694F83920202ACA
S3150800CD602DD151B34BB394F83820012A27D0206B24
S3150800CD70E38400252122E563012684F83920114A37
S3150800CD80A38484F838602162C2630F4A02640F4A9A
S3150800CD90C0E91325226804320EF028FF23686FF0D5
S3150800CDA0400243F8142B03F1424303F580135B0159
S3150800CDB084F838502846DE6170BD0120FCE7022061
S3150800CDC0FAE700BF6DCE0008A7CE000871CF0008AD
S3150800CDD037B590F83A30202B04463BD1002937D096
S3150800CDE0002A35D090F83830012B33D0012380F84B
S3150800CDF038300023C36381628285222084F83A0092
S3150800CE00606B154DC563154D0564154DC0E9135383
S3150800CE10256813460A46291D0EF0E8FE226853695E
S3150800CE2013F4807305D10193136801935368019332
S3150800CE30019B0C4B13445B010121002084F8380048
S3150800CE401960094B13445B011960996103B030BD41
S3150800CE500120FBE70220F9E7B1CE000863CF0008FE
S3150800CE6071CF00080D0010C2140010C202681268C3
S3150800CE7012F4807208B5836B0BD1DA841968074BF4
S3150800CE800B445B01DA61064B0B445B0101229A6194
S3150800CE9008BD184611F07CFFFAE700BF140010C25F
S3150800CEA00C0010C2704708B5806BFFF7FBFF08BD82
S3150800CEB008B50346806B1B681B6813F480730DD195
S3150800CEC00168084AC3850A4452011360064A0A449F
S3150800CED0520113609361202380F83A3011F060FF05
S3150800CEE008BD00BF0D0010C2140010C290F83A30F9
S3150800CEF0222B10B521D1816804690268836AB1F5CD
S3150800CF00805F1FD15268CCB9C2F3080223F8022BFE
S3150800CF108362C38D013B9BB2C38573B901680E4A10
S3150800CF200A445201536113620C4A0A4452011360BF
S3150800CF30202380F83A3011F033FF10BDD2B223F81F
S3150800CF40012BE5E7591C526881620CB91A70E0E7B3
S3150800CF5002F07F02FAE700BF0C0010C2140010C2EC
S3150800CF60704708B5806BFFF7FBFF08BD70470000E8
S3150800CF7008B5806B0268536990F8391021290BD1DE
S3150800CF80190609D50D4B13445B010021C184D961EB
S3150800CF909961202380F83930536990F83A20222A7B
S3150800CFA005D15B0603D50023C385FFF755FDC36B83
S3150800CFB043F01003C363FFF7D9FF08BD0C0010C286
S3150800CFC002681368D16870B51E075569044607D10B
S3150800CFD09E065AD58D0658D5BDE87040FFF786BF20
S3150800CFE005F0010001F4907505434ED0DE0705D51E
S3150800CFF0CD0542BFE26B42F00102E2635A0704D54F
S3150800D00018B1E26B42F00202E2639E0704D518B13A
S3150800D010E26B42F00402E2631D0704D518B1E26B25
S3150800D02042F00802E263E26B52B3980604D58A0618
S3150800D03002D52046FFF75AFF23685B69E56B03F0C4
S3150800D040400305F008051D4320461AD0FFF704FDE6
S3150800D050226853695B0610D5284B606B13445B0145
S3150800D06000229A6148B1264B03650EF041FE38B19D
S3150800D070606BBDE87040036D18472046FFF776FFE2
S3150800D08070BDFFF773FFE563FAE71E0626D50D06A2
S3150800D09024D594F83930212BF2D1A168236AB1F549
S3150800D0A0805F16D11988C1F308015160216971B9E9
S3150800D0B002332362E38C013B9BB2E384002BDFD16E
S3150800D0C0104911444901CB6101238B61D8E701332B
S3150800D0D0EFE7591C21621B785360EBE75806CFD55A
S3150800D0E04B06CDD5074B13445B0100229A612023DA
S3150800D0F084F83930204611F04BFEC1E7140010C2FF
S3150800D10009D100080C0010C208B5806B0023C3853E
S3150800D110C384FFF72BFF08BD38B5836804460D4660
S3150800D1209BB10A4804600220A07304F10C009847DA
S3150800D1300238012801D9832D05D121462046BDE8AC
S3150800D140384000F00BB80123A37338BD900F0120B7
S3150800D150837BDB0701D5FFF7DFBF70472DE9F8436F
S3150800D1601C4F3D68044688462B46A34204D00BB99B
S3150800D170BDE8F8831B68F8E7002CF9D0164EA37BA8
S3150800D180D6F8009063B10023A3738DB9A3683BB1A9
S3150800D190444505D034602A46832104F10C0098479B
S3150800D1A03B68A3420ED123683B60C6F80090DFE7D0
S3150800D1B0A54204D0224687212846FFF7C9FF2D68D5
S3150800D1C0E3E71346002BF0D01A68A242F9D1226889
S3150800D1D01A60EAE7940F0120900F012038B5094B31
S3150800D1E000221A70084B1C68012504B938BDE37B78
S3150800D1F02BB1E581002282212046FFF78DFF2468A6
S3150800D200F3E700BF8F0F0120940F0120014B196827
S3150800D210FFF7A4BF900F0120064B8A221A70064A10
S3150800D22000231370054A1370054A1360054A1360F4
S3150800D230704700BF8D0F01208C0F01208E0F012033
S3150800D240940F0120900F0120F7B51C4E33780BB1CF
S3150800D250FFF7C4FF1A4D2C7894B11A4F1A493B7838
S3150800D2600C225A438818895CD0E90120013303F05F
S3150800D2701F03013C3B702C70C0B9144B1C6824B9C1
S3150800D28033782878184403B0F0BD33782BB1CDE94C
S3150800D2900012FFF7A3FFDDE900122046CDE90012D0
S3150800D2A0FFF756FFDDE900122468E8E7812904BF85
S3150800D2B001238373FFF74CFFE2E700BF8F0F0120BE
S3150800D2C08E0F01208C0F01200C0E0120940F0120D7
S3150800D2D0F0B50B4D2C78202C0FD00A4B0A4F1B7833
S3150800D2E023440C2603F01F037343FE180134F95434
S3150800D2F0C6E901202C700020F0BD0120FCE700BF24
S3150800D3008E0F01208C0F01200C0E012038B5034C1E
S3150800D3102568FFF71DFF256038BD00BF900F012067
S3150800D320084B19680A4682420BD042B948B10160D7
S3150800D33018600123837382818121FFF7E7BF126892
S3150800D340F1E77047940F012048B1837B013B012B1D
S3150800D35005D80123024AC3731370FBF77DBF7047D4
S3150800D3608F0F0120704713B504460DF10601002002
S3150800D37011F0CCF930B9BDF8063041F68442534372
S3150800D3801B13238002B010BD13B5044601A9012062
S3150800D39011F0BCF988B90DF10600FFF7E4FF60B992
S3150800D3A0BDF8043042F2AC625A43BDF8063003EBCE
S3150800D3B043031B1103EB1233238002B010BD022373
S3150800D3C00370002070470000034B1B680BB1012057
S3150800D3D018470E20704700BF0C1001204FF6FF7348
S3150800D3E0002908BF1846014B188070472200002004
S3150800D3F010B5054B027A41680446188808F0DAFE2B
S3150800D4002368BDE8104018474400002010B5054BB6
S3150800D410027A41680446188800F050FB2368BDE884
S3150800D420104018472200002001460429104610B56E
S3150800D4301A4602D0072913D010BD0378F22BFBD168
S3150800D4408378112B06D0122BF6D10A4B4FF6FF72B2
S3150800D4501A80F1E7032105F0C1FE064B1880EBE7B9
S3150800D460054B1B68002BE7D00146BDE8104002209B
S3150800D470184700BF440000200C100120032938B5C6
S3150800D4801C460BD10648FBF7DBFA024685B21CB1EF
S3150800D49003492046FBF726FA284638BD0025FBE750
S3150800D4A00804002070B51378A03B1446072B23D830
S3150800D4B0DFE803F012040B222222224920462E4AD4
S3150800D4C0BDE8704004210BF080BD20462B4ABDE81C
S3150800D4D0704004210BF095BD294CA37B052B13D175
S3150800D4E0284BA189284804F110020BF034FD84F872
S3150800D4F0400010B90623A37370BDA08907F026FF64
S3150800D50040F20943E381F7E7062B18D104F1260216
